{"result":{"hex":"010000000161a69c6afa73a316d30caf33d8b046903d9c716eec9f2429740f2782191d0298010000006c493046022100bc60b17a3d4d5369c068868584f054f9649cdaac70f6baf56c704ab7cb252be8022100ab6e92e958566b9391afd9ca95183c4ec41e763adf59448cff994711c18c34ef0121024e546ee62d8b415d83bcc3163792cf1aaafb45b7a3b91304adda8b859bd9b616ffffffff02307acc0b000000001976a914bdd5a9205b905e23cc66f24df963044c8f0ccc7288ac40420f00000000001976a914b379de168d9ff43ce6096b9b49ee3f24ced8251188ac00000000","txid":"9e8485aed75a0e0c8b1bbcda5f3e1426a7da914cb5732f73dd8bd6128344a608","version":1,"locktime":0,"vin":[{"txid":"98021d1982270f7429249fec6e719c3d9046b0d833af0cd316a373fa6a9ca661","vout":1,"scriptSig":{"asm":"3046022100bc60b17a3d4d5369c068868584f054f9649cdaac70f6baf56c704ab7cb252be8022100ab6e92e958566b9391afd9ca95183c4ec41e763adf59448cff994711c18c34ef01 024e546ee62d8b415d83bcc3163792cf1aaafb45b7a3b91304adda8b859bd9b616","hex":"493046022100bc60b17a3d4d5369c068868584f054f9649cdaac70f6baf56c704ab7cb252be8022100ab6e92e958566b9391afd9ca95183c4ec41e763adf59448cff994711c18c34ef0121024e546ee62d8b415d83bcc3163792cf1aaafb45b7a3b91304adda8b859bd9b616"},"sequence":4294967295}],"vout":[{"value":1.97950000,"n":0,"scriptPubKey":{"asm":"OP_DUP OP_HASH160 bdd5a9205b905e23cc66f24df963044c8f0ccc72 OP_EQUALVERIFY OP_CHECKSIG","hex":"76a914bdd5a9205b905e23cc66f24df963044c8f0ccc7288ac","reqSigs":1,"type":"pubkeyhash","addresses":["mxphxiG4Ggjb3bKFbeFnsuK2qde3541S93"]}},{"value":0.01000000,"n":1,"scriptPubKey":{"asm":"OP_DUP OP_HASH160 b379de168d9ff43ce6096b9b49ee3f24ced82511 OP_EQUALVERIFY OP_CHECKSIG","hex":"76a914b379de168d9ff43ce6096b9b49ee3f24ced8251188ac","reqSigs":1,"type":"pubkeyhash","addresses":["mwswEtw6t2ziSjsfip62FPg84NXGsJ5H2o"]}}],"blockhash":"00000000d0ef0ae127a9371bf7657a1dbd597a6e7dc9e46eea68b74e68602ffb","confirmations":870,"time":1365178584,"blocktime":1365178584},"error":null,"id":null}